{
    "contractName": "DynamicTraits",
    "abi": [
        {
            "inputs": [
                {
                    "internalType": "address",
                    "name": "deployer",
                    "type": "address"
                }
            ],
            "stateMutability": "nonpayable",
            "type": "constructor"
        },
        {
            "inputs": [],
            "name": "ApprovalCallerNotOwnerNorApproved",
            "type": "error"
        },
        {
            "inputs": [],
            "name": "ApprovalQueryForNonexistentToken",
            "type": "error"
        },
        {
            "inputs": [],
            "name": "ArrayLengthMismatch",
            "type": "error"
        },
        {
            "inputs": [],
            "name": "BalanceQueryForZeroAddress",
            "type": "error"
        },
        {
            "inputs": [],
            "name": "InvalidQueryRange",
            "type": "error"
        },
        {
            "inputs": [],
            "name": "InvalidTraitTokenId",
            "type": "error"
        },
        {
            "inputs": [],
            "name": "MaxPerTransactionReached",
            "type": "error"
        },
        {
            "inputs": [],
            "name": "MaxSupplyReached",
            "type": "error"
        },
        {
            "inputs": [],
            "name": "MintERC2309QuantityExceedsLimit",
            "type": "error"
        },
        {
            "inputs": [],
            "name": "MintFromContractNotAllowed",
            "type": "error"
        },
        {
            "inputs": [],
            "name": "MintToZeroAddress",
            "type": "error"
        },
        {
            "inputs": [],
            "name": "MintZeroQuantity",
            "type": "error"
        },
        {
            "inputs": [],
            "name": "MintingPaused",
            "type": "error"
        },
        {
            "inputs": [],
            "name": "NotOwnerOfToken",
            "type": "error"
        },
        {
            "inputs": [],
            "name": "OwnerQueryForNonexistentToken",
            "type": "error"
        },
        {
            "inputs": [],
            "name": "OwnershipNotInitializedForExtraData",
            "type": "error"
        },
        {
            "inputs": [],
            "name": "TransferCallerNotOwnerNorApproved",
            "type": "error"
        },
        {
            "inputs": [],
            "name": "TransferFromIncorrectOwner",
            "type": "error"
        },
        {
            "inputs": [],
            "name": "TransferToNonERC721ReceiverImplementer",
            "type": "error"
        },
        {
            "inputs": [],
            "name": "TransferToZeroAddress",
            "type": "error"
        },
        {
            "inputs": [],
            "name": "URIQueryForNonexistentToken",
            "type": "error"
        },
        {
            "inputs": [],
            "name": "WithdrawalFailed",
            "type": "error"
        },
        {
            "inputs": [],
            "name": "WrongEtherAmount",
            "type": "error"
        },
        {
            "inputs": [],
            "name": "ZeroBalanceForTraitToken",
            "type": "error"
        },
        {
            "anonymous": false,
            "inputs": [
                {
                    "indexed": true,
                    "internalType": "address",
                    "name": "owner",
                    "type": "address"
                },
                {
                    "indexed": true,
                    "internalType": "address",
                    "name": "approved",
                    "type": "address"
                },
                {
                    "indexed": true,
                    "internalType": "uint256",
                    "name": "tokenId",
                    "type": "uint256"
                }
            ],
            "name": "Approval",
            "type": "event"
        },
        {
            "anonymous": false,
            "inputs": [
                {
                    "indexed": true,
                    "internalType": "address",
                    "name": "owner",
                    "type": "address"
                },
                {
                    "indexed": true,
                    "internalType": "address",
                    "name": "operator",
                    "type": "address"
                },
                {
                    "indexed": false,
                    "internalType": "bool",
                    "name": "approved",
                    "type": "bool"
                }
            ],
            "name": "ApprovalForAll",
            "type": "event"
        },
        {
            "anonymous": false,
            "inputs": [
                {
                    "indexed": true,
                    "internalType": "uint256",
                    "name": "fromTokenId",
                    "type": "uint256"
                },
                {
                    "indexed": false,
                    "internalType": "uint256",
                    "name": "toTokenId",
                    "type": "uint256"
                },
                {
                    "indexed": true,
                    "internalType": "address",
                    "name": "from",
                    "type": "address"
                },
                {
                    "indexed": true,
                    "internalType": "address",
                    "name": "to",
                    "type": "address"
                }
            ],
            "name": "ConsecutiveTransfer",
            "type": "event"
        },
        {
            "anonymous": false,
            "inputs": [
                {
                    "indexed": true,
                    "internalType": "address",
                    "name": "previousOwner",
                    "type": "address"
                },
                {
                    "indexed": true,
                    "internalType": "address",
                    "name": "newOwner",
                    "type": "address"
                }
            ],
            "name": "OwnershipTransferred",
            "type": "event"
        },
        {
            "anonymous": false,
            "inputs": [
                {
                    "indexed": true,
                    "internalType": "address",
                    "name": "from",
                    "type": "address"
                },
                {
                    "indexed": true,
                    "internalType": "address",
                    "name": "to",
                    "type": "address"
                },
                {
                    "indexed": true,
                    "internalType": "uint256",
                    "name": "tokenId",
                    "type": "uint256"
                }
            ],
            "name": "Transfer",
            "type": "event"
        },
        {
            "anonymous": false,
            "inputs": [
                {
                    "indexed": false,
                    "internalType": "uint256",
                    "name": "_tokenId",
                    "type": "uint256"
                }
            ],
            "name": "TransferredToken",
            "type": "event"
        },
        {
            "anonymous": false,
            "inputs": [
                {
                    "indexed": false,
                    "internalType": "uint256",
                    "name": "_tokenId",
                    "type": "uint256"
                },
                {
                    "indexed": false,
                    "internalType": "uint256",
                    "name": "_head",
                    "type": "uint256"
                },
                {
                    "indexed": false,
                    "internalType": "uint256",
                    "name": "_top",
                    "type": "uint256"
                },
                {
                    "indexed": false,
                    "internalType": "uint256",
                    "name": "_bottom",
                    "type": "uint256"
                }
            ],
            "name": "UpdatedTraits",
            "type": "event"
        },
        {
            "inputs": [
                {
                    "internalType": "uint256",
                    "name": "id",
                    "type": "uint256"
                }
            ],
            "name": "addBottomTokenId",
            "outputs": [],
            "stateMutability": "nonpayable",
            "type": "function"
        },
        {
            "inputs": [
                {
                    "internalType": "uint256",
                    "name": "id",
                    "type": "uint256"
                }
            ],
            "name": "addHeadTokenId",
            "outputs": [],
            "stateMutability": "nonpayable",
            "type": "function"
        },
        {
            "inputs": [
                {
                    "internalType": "uint256",
                    "name": "id",
                    "type": "uint256"
                }
            ],
            "name": "addTopTokenId",
            "outputs": [],
            "stateMutability": "nonpayable",
            "type": "function"
        },
        {
            "inputs": [
                {
                    "internalType": "address",
                    "name": "operator",
                    "type": "address"
                },
                {
                    "internalType": "uint256",
                    "name": "tokenId",
                    "type": "uint256"
                }
            ],
            "name": "approve",
            "outputs": [],
            "stateMutability": "payable",
            "type": "function"
        },
        {
            "inputs": [
                {
                    "internalType": "address",
                    "name": "owner",
                    "type": "address"
                }
            ],
            "name": "balanceOf",
            "outputs": [
                {
                    "internalType": "uint256",
                    "name": "",
                    "type": "uint256"
                }
            ],
            "stateMutability": "view",
            "type": "function"
        },
        {
            "inputs": [
                {
                    "internalType": "address[]",
                    "name": "recipients",
                    "type": "address[]"
                },
                {
                    "internalType": "uint256[]",
                    "name": "tokenIds",
                    "type": "uint256[]"
                }
            ],
            "name": "batchTransferFrom",
            "outputs": [],
            "stateMutability": "nonpayable",
            "type": "function"
        },
        {
            "inputs": [
                {
                    "internalType": "uint256",
                    "name": "tokenId",
                    "type": "uint256"
                }
            ],
            "name": "burn",
            "outputs": [],
            "stateMutability": "nonpayable",
            "type": "function"
        },
        {
            "inputs": [
                {
                    "internalType": "uint16",
                    "name": "quantity",
                    "type": "uint16"
                }
            ],
            "name": "collectReserves",
            "outputs": [],
            "stateMutability": "nonpayable",
            "type": "function"
        },
        {
            "inputs": [
                {
                    "internalType": "uint256",
                    "name": "tokenId",
                    "type": "uint256"
                }
            ],
            "name": "explicitOwnershipOf",
            "outputs": [
                {
                    "components": [
                        {
                            "internalType": "address",
                            "name": "addr",
                            "type": "address"
                        },
                        {
                            "internalType": "uint64",
                            "name": "startTimestamp",
                            "type": "uint64"
                        },
                        {
                            "internalType": "bool",
                            "name": "burned",
                            "type": "bool"
                        },
                        {
                            "internalType": "uint24",
                            "name": "extraData",
                            "type": "uint24"
                        }
                    ],
                    "internalType": "struct IERC721A.TokenOwnership",
                    "name": "",
                    "type": "tuple"
                }
            ],
            "stateMutability": "view",
            "type": "function"
        },
        {
            "inputs": [
                {
                    "internalType": "uint256[]",
                    "name": "tokenIds",
                    "type": "uint256[]"
                }
            ],
            "name": "explicitOwnershipsOf",
            "outputs": [
                {
                    "components": [
                        {
                            "internalType": "address",
                            "name": "addr",
                            "type": "address"
                        },
                        {
                            "internalType": "uint64",
                            "name": "startTimestamp",
                            "type": "uint64"
                        },
                        {
                            "internalType": "bool",
                            "name": "burned",
                            "type": "bool"
                        },
                        {
                            "internalType": "uint24",
                            "name": "extraData",
                            "type": "uint24"
                        }
                    ],
                    "internalType": "struct IERC721A.TokenOwnership[]",
                    "name": "",
                    "type": "tuple[]"
                }
            ],
            "stateMutability": "view",
            "type": "function"
        },
        {
            "inputs": [],
            "name": "flipSale",
            "outputs": [],
            "stateMutability": "nonpayable",
            "type": "function"
        },
        {
            "inputs": [
                {
                    "internalType": "address",
                    "name": "owner",
                    "type": "address"
                }
            ],
            "name": "freeMintedCount",
            "outputs": [
                {
                    "internalType": "uint64",
                    "name": "",
                    "type": "uint64"
                }
            ],
            "stateMutability": "view",
            "type": "function"
        },
        {
            "inputs": [
                {
                    "internalType": "uint256",
                    "name": "tokenId",
                    "type": "uint256"
                }
            ],
            "name": "getApproved",
            "outputs": [
                {
                    "internalType": "address",
                    "name": "",
                    "type": "address"
                }
            ],
            "stateMutability": "view",
            "type": "function"
        },
        {
            "inputs": [
                {
                    "internalType": "uint256",
                    "name": "tokenId",
                    "type": "uint256"
                }
            ],
            "name": "getTraitTokenId",
            "outputs": [
                {
                    "internalType": "uint16",
                    "name": "headTokenId",
                    "type": "uint16"
                },
                {
                    "internalType": "uint16",
                    "name": "topTokenId",
                    "type": "uint16"
                },
                {
                    "internalType": "uint16",
                    "name": "bottomTokenId",
                    "type": "uint16"
                }
            ],
            "stateMutability": "view",
            "type": "function"
        },
        {
            "inputs": [
                {
                    "internalType": "address",
                    "name": "owner",
                    "type": "address"
                },
                {
                    "internalType": "address",
                    "name": "operator",
                    "type": "address"
                }
            ],
            "name": "isApprovedForAll",
            "outputs": [
                {
                    "internalType": "bool",
                    "name": "",
                    "type": "bool"
                }
            ],
            "stateMutability": "view",
            "type": "function"
        },
        {
            "inputs": [
                {
                    "internalType": "uint8",
                    "name": "quantity",
                    "type": "uint8"
                }
            ],
            "name": "mint",
            "outputs": [],
            "stateMutability": "payable",
            "type": "function"
        },
        {
            "inputs": [],
            "name": "mintPaused",
            "outputs": [
                {
                    "internalType": "bool",
                    "name": "",
                    "type": "bool"
                }
            ],
            "stateMutability": "view",
            "type": "function"
        },
        {
            "inputs": [],
            "name": "name",
            "outputs": [
                {
                    "internalType": "string",
                    "name": "",
                    "type": "string"
                }
            ],
            "stateMutability": "view",
            "type": "function"
        },
        {
            "inputs": [],
            "name": "operatorFilteringEnabled",
            "outputs": [
                {
                    "internalType": "bool",
                    "name": "",
                    "type": "bool"
                }
            ],
            "stateMutability": "view",
            "type": "function"
        },
        {
            "inputs": [],
            "name": "owner",
            "outputs": [
                {
                    "internalType": "address",
                    "name": "",
                    "type": "address"
                }
            ],
            "stateMutability": "view",
            "type": "function"
        },
        {
            "inputs": [
                {
                    "internalType": "uint256",
                    "name": "tokenId",
                    "type": "uint256"
                }
            ],
            "name": "ownerOf",
            "outputs": [
                {
                    "internalType": "address",
                    "name": "",
                    "type": "address"
                }
            ],
            "stateMutability": "view",
            "type": "function"
        },
        {
            "inputs": [],
            "name": "renounceOwnership",
            "outputs": [],
            "stateMutability": "nonpayable",
            "type": "function"
        },
        {
            "inputs": [
                {
                    "internalType": "uint256",
                    "name": "_tokenId",
                    "type": "uint256"
                },
                {
                    "internalType": "uint256",
                    "name": "_salePrice",
                    "type": "uint256"
                }
            ],
            "name": "royaltyInfo",
            "outputs": [
                {
                    "internalType": "address",
                    "name": "",
                    "type": "address"
                },
                {
                    "internalType": "uint256",
                    "name": "",
                    "type": "uint256"
                }
            ],
            "stateMutability": "view",
            "type": "function"
        },
        {
            "inputs": [
                {
                    "internalType": "address",
                    "name": "from",
                    "type": "address"
                },
                {
                    "internalType": "address",
                    "name": "to",
                    "type": "address"
                },
                {
                    "internalType": "uint256",
                    "name": "tokenId",
                    "type": "uint256"
                }
            ],
            "name": "safeTransferFrom",
            "outputs": [],
            "stateMutability": "payable",
            "type": "function"
        },
        {
            "inputs": [
                {
                    "internalType": "address",
                    "name": "from",
                    "type": "address"
                },
                {
                    "internalType": "address",
                    "name": "to",
                    "type": "address"
                },
                {
                    "internalType": "uint256",
                    "name": "tokenId",
                    "type": "uint256"
                },
                {
                    "internalType": "bytes",
                    "name": "data",
                    "type": "bytes"
                }
            ],
            "name": "safeTransferFrom",
            "outputs": [],
            "stateMutability": "payable",
            "type": "function"
        },
        {
            "inputs": [
                {
                    "internalType": "address",
                    "name": "operator",
                    "type": "address"
                },
                {
                    "internalType": "bool",
                    "name": "approved",
                    "type": "bool"
                }
            ],
            "name": "setApprovalForAll",
            "outputs": [],
            "stateMutability": "nonpayable",
            "type": "function"
        },
        {
            "inputs": [
                {
                    "internalType": "string",
                    "name": "newBaseUri",
                    "type": "string"
                }
            ],
            "name": "setBaseURI",
            "outputs": [],
            "stateMutability": "nonpayable",
            "type": "function"
        },
        {
            "inputs": [
                {
                    "internalType": "address",
                    "name": "receiver",
                    "type": "address"
                },
                {
                    "internalType": "uint96",
                    "name": "feeNumerator",
                    "type": "uint96"
                }
            ],
            "name": "setDefaultRoyalty",
            "outputs": [],
            "stateMutability": "nonpayable",
            "type": "function"
        },
        {
            "inputs": [
                {
                    "internalType": "bool",
                    "name": "value",
                    "type": "bool"
                }
            ],
            "name": "setOperatorFilteringEnabled",
            "outputs": [],
            "stateMutability": "nonpayable",
            "type": "function"
        },
        {
            "inputs": [
                {
                    "internalType": "address",
                    "name": "operator",
                    "type": "address"
                },
                {
                    "internalType": "uint256",
                    "name": "tokenId",
                    "type": "uint256"
                },
                {
                    "internalType": "uint16",
                    "name": "headTokenId",
                    "type": "uint16"
                },
                {
                    "internalType": "uint16",
                    "name": "topTokenId",
                    "type": "uint16"
                },
                {
                    "internalType": "uint16",
                    "name": "bottomTokenId",
                    "type": "uint16"
                }
            ],
            "name": "setTraitTokenIds",
            "outputs": [],
            "stateMutability": "nonpayable",
            "type": "function"
        },
        {
            "inputs": [
                {
                    "internalType": "address",
                    "name": "_traitsAddress",
                    "type": "address"
                }
            ],
            "name": "setTraitsContract",
            "outputs": [],
            "stateMutability": "nonpayable",
            "type": "function"
        },
        {
            "inputs": [
                {
                    "internalType": "bytes4",
                    "name": "interfaceId",
                    "type": "bytes4"
                }
            ],
            "name": "supportsInterface",
            "outputs": [
                {
                    "internalType": "bool",
                    "name": "",
                    "type": "bool"
                }
            ],
            "stateMutability": "view",
            "type": "function"
        },
        {
            "inputs": [],
            "name": "symbol",
            "outputs": [
                {
                    "internalType": "string",
                    "name": "",
                    "type": "string"
                }
            ],
            "stateMutability": "view",
            "type": "function"
        },
        {
            "inputs": [
                {
                    "internalType": "uint256",
                    "name": "tokenId",
                    "type": "uint256"
                }
            ],
            "name": "tokenURI",
            "outputs": [
                {
                    "internalType": "string",
                    "name": "",
                    "type": "string"
                }
            ],
            "stateMutability": "view",
            "type": "function"
        },
        {
            "inputs": [
                {
                    "internalType": "address",
                    "name": "owner",
                    "type": "address"
                }
            ],
            "name": "tokensOfOwner",
            "outputs": [
                {
                    "internalType": "uint256[]",
                    "name": "",
                    "type": "uint256[]"
                }
            ],
            "stateMutability": "view",
            "type": "function"
        },
        {
            "inputs": [
                {
                    "internalType": "address",
                    "name": "owner",
                    "type": "address"
                },
                {
                    "internalType": "uint256",
                    "name": "start",
                    "type": "uint256"
                },
                {
                    "internalType": "uint256",
                    "name": "stop",
                    "type": "uint256"
                }
            ],
            "name": "tokensOfOwnerIn",
            "outputs": [
                {
                    "internalType": "uint256[]",
                    "name": "",
                    "type": "uint256[]"
                }
            ],
            "stateMutability": "view",
            "type": "function"
        },
        {
            "inputs": [],
            "name": "totalSupply",
            "outputs": [
                {
                    "internalType": "uint256",
                    "name": "",
                    "type": "uint256"
                }
            ],
            "stateMutability": "view",
            "type": "function"
        },
        {
            "inputs": [
                {
                    "internalType": "address",
                    "name": "from",
                    "type": "address"
                },
                {
                    "internalType": "address",
                    "name": "to",
                    "type": "address"
                },
                {
                    "internalType": "uint256",
                    "name": "tokenId",
                    "type": "uint256"
                }
            ],
            "name": "transferFrom",
            "outputs": [],
            "stateMutability": "payable",
            "type": "function"
        },
        {
            "inputs": [
                {
                    "internalType": "address",
                    "name": "newOwner",
                    "type": "address"
                }
            ],
            "name": "transferOwnership",
            "outputs": [],
            "stateMutability": "nonpayable",
            "type": "function"
        },
        {
            "inputs": [],
            "name": "withdraw",
            "outputs": [],
            "stateMutability": "nonpayable",
            "type": "function"
        }
    ],
    "bytecode": "600b805461ffff191661010117905560a060405260006080908152600c906200002990826200048d565b503480156200003757600080fd5b50604051620030bb380380620030bb8339810160408190526200005a9162000559565b6040518060400160405280600e81526020016d44796e616d69632054726169747360901b81525060405180604001604052806002815260200161111560f21b815250620000b6620000b06200011260201b60201c565b62000116565b6003620000c483826200048d565b506004620000d382826200048d565b506001808155620000e8925083915062000166565b620000f38162000116565b620000fd62000247565b6200010b816102ee6200026a565b506200058b565b3390565b600080546001600160a01b038381166001600160a01b0319831681178455604051919092169283917f8be0079c531659141344cd1fd0a4f28419497f9722a3daafe3b4186f6b6457e09190a35050565b60015460008290036200018c5760405163b562e8dd60e01b815260040160405180910390fd5b6001600160a01b03831660008181526006602090815260408083208054680100000000000000018802019055848352600590915281206001851460e11b4260a01b178317905582840190839083906000805160206200309b8339815191528180a4600183015b8181146200021b57808360006000805160206200309b833981519152600080a4600101620001f2565b50816000036200023d57604051622e076360e81b815260040160405180910390fd5b600155505b505050565b62000268733cc6cdda760b79bafa08df41ecfa224f810dceb660016200036f565b565b6127106001600160601b0382161115620002de5760405162461bcd60e51b815260206004820152602a60248201527f455243323938313a20726f79616c7479206665652077696c6c206578636565646044820152692073616c65507269636560b01b60648201526084015b60405180910390fd5b6001600160a01b038216620003365760405162461bcd60e51b815260206004820152601960248201527f455243323938313a20696e76616c6964207265636569766572000000000000006044820152606401620002d5565b604080518082019091526001600160a01b039092168083526001600160601b039091166020909201829052600160a01b90910217600955565b6001600160a01b0390911690637d3e3dbe816200039f5782620003985750634420e4866200039f565b5063a0af29035b8060e01b60005230600452826024526004600060446000806daaeb6d7670e522a718067333cd4e5af1620003df578060005160e01c03620003df57600080fd5b5060006024525050565b634e487b7160e01b600052604160045260246000fd5b600181811c908216806200041457607f821691505b6020821081036200043557634e487b7160e01b600052602260045260246000fd5b50919050565b601f8211156200024257600081815260208120601f850160051c81016020861015620004645750805b601f850160051c820191505b81811015620004855782815560010162000470565b505050505050565b81516001600160401b03811115620004a957620004a9620003e9565b620004c181620004ba8454620003ff565b846200043b565b602080601f831160018114620004f95760008415620004e05750858301515b600019600386901b1c1916600185901b17855562000485565b600085815260208120601f198616915b828110156200052a5788860151825594840194600190910190840162000509565b5085821015620005495787850151600019600388901b60f8161c191681555b5050505050600190811b01905550565b6000602082840312156200056c57600080fd5b81516001600160a01b03811681146200058457600080fd5b9392505050565b612b00806200059b6000396000f3fe60806040526004361061023b5760003560e01c80636352211e1161012e57806399a2557a116100ab578063c23dc68f1161006f578063c23dc68f1461071f578063c87b56dd1461074c578063e985e9c51461076c578063f2fde38b146107b5578063fb796e6c146107d557600080fd5b806399a2557a1461068c578063a22cb465146106ac578063b7c0b8e8146106cc578063b88d4fde146106ec578063bd98d7fc146106ff57600080fd5b80637e4831d3116100f25780637e4831d3146105da5780638462151c146105f45780638da5cb5b1461062157806395d89b411461063f578063981332351461065457600080fd5b80636352211e1461055d5780636ecd23061461057d57806370a0823114610590578063715018a6146105b05780637ba5e621146105c557600080fd5b806323b872dd116101bc57806342966c681161018057806342966c68146104b057806355f804b3146104d0578063571489a9146104f05780635bbb2177146105105780635eabd84a1461053d57600080fd5b806323b872dd146104165780632a55205a1461042957806330f6e0fa146104685780633ccfd60b1461048857806342842e0e1461049d57600080fd5b806314d387251161020357806314d387251461030457806318160ddd146103245780631b1f40191461034b5780631d4e61cc1461036b57806321623ff6146103f657600080fd5b806301ffc9a71461024057806304634d8d1461027557806306fdde0314610297578063081812fc146102b9578063095ea7b3146102f1575b600080fd5b34801561024c57600080fd5b5061026061025b36600461221e565b6107f4565b60405190151581526020015b60405180910390f35b34801561028157600080fd5b50610295610290366004612257565b610814565b005b3480156102a357600080fd5b506102ac61082a565b60405161026c91906122ea565b3480156102c557600080fd5b506102d96102d43660046122fd565b6108bc565b6040516001600160a01b03909116815260200161026c565b6102956102ff366004612316565b610900565b34801561031057600080fd5b5061029561031f366004612384565b610936565b34801561033057600080fd5b5060025460015403600019015b60405190815260200161026c565b34801561035757600080fd5b50610295610366366004612401565b6109bb565b34801561037757600080fd5b506103d16103863660046122fd565b6000818152600d60209081526040918290208251606081018452905461ffff808216808452620100008304821694840185905264010000000090920416919093018190529193909250565b6040805161ffff9485168152928416602084015292169181019190915260600161026c565b34801561040257600080fd5b506102956104113660046122fd565b610a12565b61029561042436600461241c565b610a35565b34801561043557600080fd5b50610449610444366004612458565b610ab0565b604080516001600160a01b03909316835260208301919091520161026c565b34801561047457600080fd5b506102956104833660046122fd565b610b5e565b34801561049457600080fd5b50610295610b81565b6102956104ab36600461241c565b610bfd565b3480156104bc57600080fd5b506102956104cb3660046122fd565b610c3f565b3480156104dc57600080fd5b506102956104eb36600461247a565b610c4a565b3480156104fc57600080fd5b5061029561050b3660046124eb565b610c5f565b34801561051c57600080fd5b5061053061052b366004612549565b610f98565b60405161026c91906125c6565b34801561054957600080fd5b50610295610558366004612608565b611063565b34801561056957600080fd5b506102d96105783660046122fd565b61108d565b61029561058b366004612623565b611098565b34801561059c57600080fd5b5061033d6105ab366004612608565b611260565b3480156105bc57600080fd5b506102956112ae565b3480156105d157600080fd5b506102956112c2565b3480156105e657600080fd5b50600b546102609060ff1681565b34801561060057600080fd5b5061061461060f366004612608565b6112de565b60405161026c9190612646565b34801561062d57600080fd5b506000546001600160a01b03166102d9565b34801561064b57600080fd5b506102ac6113e6565b34801561066057600080fd5b5061067461066f366004612608565b6113f5565b6040516001600160401b03909116815260200161026c565b34801561069857600080fd5b506106146106a736600461267e565b611416565b3480156106b857600080fd5b506102956106c73660046126c1565b61159d565b3480156106d857600080fd5b506102956106e73660046126f4565b6115ce565b6102956106fa366004612725565b6115f0565b34801561070b57600080fd5b5061029561071a3660046122fd565b61163a565b34801561072b57600080fd5b5061073f61073a3660046122fd565b61165d565b60405161026c9190612800565b34801561075857600080fd5b506102ac6107673660046122fd565b6116e5565b34801561077857600080fd5b5061026061078736600461280e565b6001600160a01b03918216600090815260086020908152604080832093909416825291909152205460ff1690565b3480156107c157600080fd5b506102956107d0366004612608565b611768565b3480156107e157600080fd5b50600b5461026090610100900460ff1681565b60006107ff826117e3565b8061080e575061080e82611831565b92915050565b61081c611856565b61082682826118b0565b5050565b60606003805461083990612838565b80601f016020809104026020016040519081016040528092919081815260200182805461086590612838565b80156108b25780601f10610887576101008083540402835291602001916108b2565b820191906000526020600020905b81548152906001019060200180831161089557829003601f168201915b5050505050905090565b60006108c7826119ad565b6108e4576040516333d1c03960e21b815260040160405180910390fd5b506000908152600760205260409020546001600160a01b031690565b8161090a816119e2565b61092757600b54610100900460ff16156109275761092781611a04565b6109318383611a48565b505050565b808381146109575760405163512509d360e11b815260040160405180910390fd5b60005b818110156109b3576109ab3387878481811061097857610978612872565b905060200201602081019061098d9190612608565b86868581811061099f5761099f612872565b90506020020135610a35565b60010161095a565b505050505050565b6109c3611856565b61270f8161ffff166109d86001546000190190565b6109e2919061289e565b1115610a015760405163d05cb60960e01b815260040160405180910390fd5b610a0f338261ffff16611ae8565b50565b610a1a611856565b6000908152601060205260409020805460ff19166001179055565b826001600160a01b0381163314610a6c57610a4f336119e2565b610a6c57600b54610100900460ff1615610a6c57610a6c33611a04565b610a77848484611bc2565b6040518281527f9c4c572c2205dbc9e4e69a8234d9d197e3308365c89f2f50fe0ab00149d94ade9060200160405180910390a150505050565b6000828152600a602090815260408083208151808301909252546001600160a01b038116808352600160a01b9091046001600160601b0316928201929092528291610b255750604080518082019091526009546001600160a01b0381168252600160a01b90046001600160601b031660208201525b602081015160009061271090610b44906001600160601b0316876128b1565b610b4e91906128c8565b91519350909150505b9250929050565b610b66611856565b6000908152600e60205260409020805460ff19166001179055565b610b89611856565b600080546040516001600160a01b039091169047908381818185875af1925050503d8060008114610bd6576040519150601f19603f3d011682016040523d82523d6000602084013e610bdb565b606091505b5050905080610a0f576040516327fcd9d160e01b815260040160405180910390fd5b826001600160a01b0381163314610c3457610c17336119e2565b610c3457600b54610100900460ff1615610c3457610c3433611a04565b610a77848484611d4f565b610a0f816001611d6a565b610c52611856565b600c610931828483612930565b846001600160a01b0381163314610c9657610c79336119e2565b610c9657600b54610100900460ff1615610c9657610c9633611a04565b33610ca08661108d565b6001600160a01b031614610cc75760405163130213c560e21b815260040160405180910390fd5b61ffff84166000908152600e602052604090205460ff161580610cfe575061ffff83166000908152600f602052604090205460ff16155b80610d1d575061ffff821660009081526010602052604090205460ff16155b15610d3b57604051631036d7ab60e11b815260040160405180910390fd5b601154604051627eeac760e11b81526001600160a01b03888116600483015261ffff8716602483015290911690819062fdd58e90604401602060405180830381865afa158015610d8f573d6000803e3d6000fd5b505050506040513d601f19601f82011682018060405250810190610db391906129ef565b1580610e2e5750604051627eeac760e11b81526001600160a01b03888116600483015261ffff8616602483015282169062fdd58e90604401602060405180830381865afa158015610e08573d6000803e3d6000fd5b505050506040513d601f19601f82011682018060405250810190610e2c91906129ef565b155b80610ea85750604051627eeac760e11b81526001600160a01b03888116600483015261ffff8516602483015282169062fdd58e90604401602060405180830381865afa158015610e82573d6000803e3d6000fd5b505050506040513d601f19601f82011682018060405250810190610ea691906129ef565b155b15610ec6576040516302cd525960e61b815260040160405180910390fd5b6040805160608101825261ffff8088168252868116602080840191825287831684860190815260008c8152600d90925290859020845181549351925185166401000000000265ffff0000000019938616620100000263ffffffff199095169190951617929092171691909117905590517fd15862b3b5a83a492b8f8f8ca0c4751ee33fa3f5e4acae76016201b1bd1432e890610f8690899089908990899093845261ffff9283166020850152908216604084015216606082015260800190565b60405180910390a15050505050505050565b6060816000816001600160401b03811115610fb557610fb561270f565b60405190808252806020026020018201604052801561100757816020015b604080516080810182526000808252602080830182905292820181905260608201528252600019909201910181610fd35790505b50905060005b82811461105a5761103586868381811061102957611029612872565b9050602002013561165d565b82828151811061104757611047612872565b602090810291909101015260010161100d565b50949350505050565b61106b611856565b601180546001600160a01b0319166001600160a01b0392909216919091179055565b600061080e82611ea3565b600b5460ff16156110bc576040516375ab03ab60e11b815260040160405180910390fd5b61270f8160ff166110d06001546000190190565b6110da919061289e565b11156110f95760405163d05cb60960e01b815260040160405180910390fd5b60068160ff16111561111e57604051634b231f9560e01b815260040160405180910390fd5b33321461113e5760405163be15cf3960e01b815260040160405180910390fd5b33600090815260066020526040902054819060c01c600181101561118c57611167600184612a08565b33600090815260066020526040902080546001600160c01b0316600160c01b17905591505b60ff8216156111c9576111a9661ff973cafa800060ff84166128b1565b3410156111c9576040516331fc877f60e01b815260040160405180910390fd5b6011546001600160a01b031680636ba0bb88856111ef6002546001546000199190030190565b6040516001600160e01b031960e085901b16815260ff90921660048301526024820152336044820152606401600060405180830381600087803b15801561123557600080fd5b505af1158015611249573d6000803e3d6000fd5b5050505061125a338560ff16611ae8565b50505050565b60006001600160a01b038216611289576040516323d3ad8160e21b815260040160405180910390fd5b506001600160a01b03166000908152600660205260409020546001600160401b031690565b6112b6611856565b6112c06000611f12565b565b6112ca611856565b600b805460ff19811660ff90911615179055565b606060008060006112ee85611260565b90506000816001600160401b0381111561130a5761130a61270f565b604051908082528060200260200182016040528015611333578160200160208202803683370190505b50905061136060408051608081018252600080825260208201819052918101829052606081019190915290565b60015b8386146113da5761137381611f62565b915081604001516113d25781516001600160a01b03161561139357815194505b876001600160a01b0316856001600160a01b0316036113d257808387806001019850815181106113c5576113c5612872565b6020026020010181815250505b600101611363565b50909695505050505050565b60606004805461083990612838565b6001600160a01b03811660009081526006602052604081205460c01c61080e565b606081831061143857604051631960ccad60e11b815260040160405180910390fd5b60008061144460015490565b9050600185101561145457600194505b80841115611460578093505b600061146b87611260565b90508486101561148a5785850381811015611484578091505b5061148e565b5060005b6000816001600160401b038111156114a8576114a861270f565b6040519080825280602002602001820160405280156114d1578160200160208202803683370190505b509050816000036114e757935061159692505050565b60006114f28861165d565b905060008160400151611503575080515b885b8881141580156115155750848714155b1561158a5761152381611f62565b925082604001516115825782516001600160a01b03161561154357825191505b8a6001600160a01b0316826001600160a01b031603611582578084888060010199508151811061157557611575612872565b6020026020010181815250505b600101611505565b50505092835250909150505b9392505050565b816115a7816119e2565b6115c457600b54610100900460ff16156115c4576115c481611a04565b6109318383611f9e565b6115d6611856565b600b80549115156101000261ff0019909216919091179055565b836001600160a01b03811633146116275761160a336119e2565b61162757600b54610100900460ff16156116275761162733611a04565b6116338585858561200a565b5050505050565b611642611856565b6000908152600f60205260409020805460ff19166001179055565b60408051608081018252600080825260208201819052918101829052606081019190915260408051608081018252600080825260208201819052918101829052606081019190915260018310806116b657506001548310155b156116c15792915050565b6116ca83611f62565b90508060400151156116dc5792915050565b6115968361204e565b60606116f0826119ad565b61170d57604051630a14c4b560e41b815260040160405180910390fd5b6000611717612083565b905080516000036117375760405180602001604052806000815250611596565b8061174184612092565b604051602001611752929190612a21565b6040516020818303038152906040529392505050565b611770611856565b6001600160a01b0381166117da5760405162461bcd60e51b815260206004820152602660248201527f4f776e61626c653a206e6577206f776e657220697320746865207a65726f206160448201526564647265737360d01b60648201526084015b60405180910390fd5b610a0f81611f12565b60006301ffc9a760e01b6001600160e01b03198316148061181457506380ac58cd60e01b6001600160e01b03198316145b8061080e5750506001600160e01b031916635b5e139f60e01b1490565b60006001600160e01b0319821663152a902d60e11b148061080e575061080e826117e3565b6000546001600160a01b031633146112c05760405162461bcd60e51b815260206004820181905260248201527f4f776e61626c653a2063616c6c6572206973206e6f7420746865206f776e657260448201526064016117d1565b6127106001600160601b038216111561191e5760405162461bcd60e51b815260206004820152602a60248201527f455243323938313a20726f79616c7479206665652077696c6c206578636565646044820152692073616c65507269636560b01b60648201526084016117d1565b6001600160a01b0382166119745760405162461bcd60e51b815260206004820152601960248201527f455243323938313a20696e76616c69642072656365697665720000000000000060448201526064016117d1565b604080518082019091526001600160a01b039092168083526001600160601b039091166020909201829052600160a01b90910217600955565b6000816001111580156119c1575060015482105b801561080e575050600090815260056020526040902054600160e01b161590565b6001600160a01b0316731e0049783f008a0085193e00003d00cd54003c711490565b69c617113400112233445560005230601a5280603a52600080604460166daaeb6d7670e522a718067333cd4e5afa611a40573d6000803e3d6000fd5b6000603a5250565b6000611a538261108d565b9050336001600160a01b03821614611a8c57611a6f8133610787565b611a8c576040516367d9dca160e11b815260040160405180910390fd5b60008281526007602052604080822080546001600160a01b0319166001600160a01b0387811691821790925591518593918516917f8c5be1e5ebec7d5bd14f71427d1e84f3dd0314c0f7b2291e5b200ac8c7c3b92591a4505050565b6001546000829003611b0d5760405163b562e8dd60e01b815260040160405180910390fd5b6001600160a01b03831660008181526006602090815260408083208054680100000000000000018802019055848352600590915281206001851460e11b4260a01b17831790558284019083908390600080516020612aab8339815191528180a4600183015b818114611b985780836000600080516020612aab833981519152600080a4600101611b72565b5081600003611bb957604051622e076360e81b815260040160405180910390fd5b60015550505050565b6000611bcd82611ea3565b9050836001600160a01b0316816001600160a01b031614611c005760405162a1148160e81b815260040160405180910390fd5b60008281526007602052604090208054611c2c8187335b6001600160a01b039081169116811491141790565b611c5757611c3a8633610787565b611c5757604051632ce44b5f60e11b815260040160405180910390fd5b6001600160a01b038516611c7e57604051633a954ecd60e21b815260040160405180910390fd5b8015611c8957600082555b6001600160a01b038681166000908152600660205260408082208054600019019055918716808252919020805460010190554260a01b17600160e11b17600085815260056020526040812091909155600160e11b84169003611d1b57600184016000818152600560205260408120549003611d19576001548114611d195760008181526005602052604090208490555b505b83856001600160a01b0316876001600160a01b0316600080516020612aab83398151915260405160405180910390a46109b3565b610931838383604051806020016040528060008152506115f0565b6000611d7583611ea3565b905080600080611d9386600090815260076020526040902080549091565b915091508415611dd357611da8818433611c17565b611dd357611db68333610787565b611dd357604051632ce44b5f60e11b815260040160405180910390fd5b8015611dde57600082555b6001600160a01b038316600081815260066020526040902080546fffffffffffffffffffffffffffffffff0190554260a01b17600360e01b17600087815260056020526040812091909155600160e11b85169003611e6c57600186016000818152600560205260408120549003611e6a576001548114611e6a5760008181526005602052604090208590555b505b60405186906000906001600160a01b03861690600080516020612aab833981519152908390a4505060028054600101905550505050565b60008180600111611ef957600154811015611ef95760008181526005602052604081205490600160e01b82169003611ef7575b80600003611596575060001901600081815260056020526040902054611ed6565b505b604051636f96cda160e11b815260040160405180910390fd5b600080546001600160a01b038381166001600160a01b0319831681178455604051919092169283917f8be0079c531659141344cd1fd0a4f28419497f9722a3daafe3b4186f6b6457e09190a35050565b60408051608081018252600080825260208201819052918101829052606081019190915260008281526005602052604090205461080e906120d6565b3360008181526008602090815260408083206001600160a01b03871680855290835292819020805460ff191686151590811790915590519081529192917f17307eab39ab6107e8899845ad3d59bd9653f200f220920489ca2b5937696c31910160405180910390a35050565b612015848484610a35565b6001600160a01b0383163b1561125a576120318484848461211d565b61125a576040516368d2bf6b60e11b815260040160405180910390fd5b60408051608081018252600080825260208201819052918101829052606081019190915261080e61207e83611ea3565b6120d6565b6060600c805461083990612838565b606060a06040510180604052602081039150506000815280825b600183039250600a81066030018353600a9004806120ac5750819003601f19909101908152919050565b604080516080810182526001600160a01b038316815260a083901c6001600160401b03166020820152600160e01b831615159181019190915260e89190911c606082015290565b604051630a85bd0160e11b81526000906001600160a01b0385169063150b7a0290612152903390899088908890600401612a50565b6020604051808303816000875af192505050801561218d575060408051601f3d908101601f1916820190925261218a91810190612a8d565b60015b6121eb573d8080156121bb576040519150601f19603f3d011682016040523d82523d6000602084013e6121c0565b606091505b5080516000036121e3576040516368d2bf6b60e11b815260040160405180910390fd5b805181602001fd5b6001600160e01b031916630a85bd0160e11b149050949350505050565b6001600160e01b031981168114610a0f57600080fd5b60006020828403121561223057600080fd5b813561159681612208565b80356001600160a01b038116811461225257600080fd5b919050565b6000806040838503121561226a57600080fd5b6122738361223b565b915060208301356001600160601b038116811461228f57600080fd5b809150509250929050565b60005b838110156122b557818101518382015260200161229d565b50506000910152565b600081518084526122d681602086016020860161229a565b601f01601f19169290920160200192915050565b60208152600061159660208301846122be565b60006020828403121561230f57600080fd5b5035919050565b6000806040838503121561232957600080fd5b6123328361223b565b946020939093013593505050565b60008083601f84011261235257600080fd5b5081356001600160401b0381111561236957600080fd5b6020830191508360208260051b8501011115610b5757600080fd5b6000806000806040858703121561239a57600080fd5b84356001600160401b03808211156123b157600080fd5b6123bd88838901612340565b909650945060208701359150808211156123d657600080fd5b506123e387828801612340565b95989497509550505050565b803561ffff8116811461225257600080fd5b60006020828403121561241357600080fd5b611596826123ef565b60008060006060848603121561243157600080fd5b61243a8461223b565b92506124486020850161223b565b9150604084013590509250925092565b6000806040838503121561246b57600080fd5b50508035926020909101359150565b6000806020838503121561248d57600080fd5b82356001600160401b03808211156124a457600080fd5b818501915085601f8301126124b857600080fd5b8135818111156124c757600080fd5b8660208285010111156124d957600080fd5b60209290920196919550909350505050565b600080600080600060a0868803121561250357600080fd5b61250c8661223b565b945060208601359350612521604087016123ef565b925061252f606087016123ef565b915061253d608087016123ef565b90509295509295909350565b6000806020838503121561255c57600080fd5b82356001600160401b0381111561257257600080fd5b61257e85828601612340565b90969095509350505050565b80516001600160a01b031682526020808201516001600160401b03169083015260408082015115159083015260609081015162ffffff16910152565b6020808252825182820181905260009190848201906040850190845b818110156113da576125f583855161258a565b92840192608092909201916001016125e2565b60006020828403121561261a57600080fd5b6115968261223b565b60006020828403121561263557600080fd5b813560ff8116811461159657600080fd5b6020808252825182820181905260009190848201906040850190845b818110156113da57835183529284019291840191600101612662565b60008060006060848603121561269357600080fd5b61269c8461223b565b95602085013595506040909401359392505050565b8035801515811461225257600080fd5b600080604083850312156126d457600080fd5b6126dd8361223b565b91506126eb602084016126b1565b90509250929050565b60006020828403121561270657600080fd5b611596826126b1565b634e487b7160e01b600052604160045260246000fd5b6000806000806080858703121561273b57600080fd5b6127448561223b565b93506127526020860161223b565b92506040850135915060608501356001600160401b038082111561277557600080fd5b818701915087601f83011261278957600080fd5b81358181111561279b5761279b61270f565b604051601f8201601f19908116603f011681019083821181831017156127c3576127c361270f565b816040528281528a60208487010111156127dc57600080fd5b82602086016020830137600060208483010152809550505050505092959194509250565b6080810161080e828461258a565b6000806040838503121561282157600080fd5b61282a8361223b565b91506126eb6020840161223b565b600181811c9082168061284c57607f821691505b60208210810361286c57634e487b7160e01b600052602260045260246000fd5b50919050565b634e487b7160e01b600052603260045260246000fd5b634e487b7160e01b600052601160045260246000fd5b8082018082111561080e5761080e612888565b808202811582820484141761080e5761080e612888565b6000826128e557634e487b7160e01b600052601260045260246000fd5b500490565b601f82111561093157600081815260208120601f850160051c810160208610156129115750805b601f850160051c820191505b818110156109b35782815560010161291d565b6001600160401b038311156129475761294761270f565b61295b836129558354612838565b836128ea565b6000601f84116001811461298f57600085156129775750838201355b600019600387901b1c1916600186901b178355611633565b600083815260209020601f19861690835b828110156129c057868501358255602094850194600190920191016129a0565b50868210156129dd5760001960f88860031b161c19848701351681555b505060018560011b0183555050505050565b600060208284031215612a0157600080fd5b5051919050565b60ff828116828216039081111561080e5761080e612888565b60008351612a3381846020880161229a565b835190830190612a4781836020880161229a565b01949350505050565b6001600160a01b0385811682528416602082015260408101839052608060608201819052600090612a83908301846122be565b9695505050505050565b600060208284031215612a9f57600080fd5b81516115968161220856feddf252ad1be2c89b69c2b068fc378daa952ba7f163c4a11628f55a4df523b3efa2646970667358221220e3ecc68f63b12a4852230b9b985fc53cebd87fb142347ac523e5e7500737d19064736f6c63430008130033ddf252ad1be2c89b69c2b068fc378daa952ba7f163c4a11628f55a4df523b3ef",
    "sourcePath": "/Users/lachlanwardropper/Desktop/dev/wardsynft/nft-dynamic-traits/contracts/DynamicTraits.sol",
    "compiler": {
        "name": "solc",
        "version": "0.8.19+commit.7dd6d404"
    },
    "functionHashes": {
        "addBottomTokenId(uint256)": "21623ff6",
        "addHeadTokenId(uint256)": "30f6e0fa",
        "addTopTokenId(uint256)": "bd98d7fc",
        "approve(address,uint256)": "095ea7b3",
        "balanceOf(address)": "70a08231",
        "batchTransferFrom(address[],uint256[])": "14d38725",
        "burn(uint256)": "42966c68",
        "collectReserves(uint16)": "1b1f4019",
        "explicitOwnershipOf(uint256)": "c23dc68f",
        "explicitOwnershipsOf(uint256[])": "5bbb2177",
        "flipSale()": "7ba5e621",
        "freeMintedCount(address)": "98133235",
        "getApproved(uint256)": "081812fc",
        "getTraitTokenId(uint256)": "1d4e61cc",
        "isApprovedForAll(address,address)": "e985e9c5",
        "mint(uint8)": "6ecd2306",
        "mintPaused()": "7e4831d3",
        "name()": "06fdde03",
        "operatorFilteringEnabled()": "fb796e6c",
        "owner()": "8da5cb5b",
        "ownerOf(uint256)": "6352211e",
        "renounceOwnership()": "715018a6",
        "royaltyInfo(uint256,uint256)": "2a55205a",
        "safeTransferFrom(address,address,uint256)": "42842e0e",
        "safeTransferFrom(address,address,uint256,bytes)": "b88d4fde",
        "setApprovalForAll(address,bool)": "a22cb465",
        "setBaseURI(string)": "55f804b3",
        "setDefaultRoyalty(address,uint96)": "04634d8d",
        "setOperatorFilteringEnabled(bool)": "b7c0b8e8",
        "setTraitTokenIds(address,uint256,uint16,uint16,uint16)": "571489a9",
        "setTraitsContract(address)": "5eabd84a",
        "supportsInterface(bytes4)": "01ffc9a7",
        "symbol()": "95d89b41",
        "tokenURI(uint256)": "c87b56dd",
        "tokensOfOwner(address)": "8462151c",
        "tokensOfOwnerIn(address,uint256,uint256)": "99a2557a",
        "totalSupply()": "18160ddd",
        "transferFrom(address,address,uint256)": "23b872dd",
        "transferOwnership(address)": "f2fde38b",
        "withdraw()": "3ccfd60b"
    },
    "gasEstimates": {
        "creation": {
            "codeDepositCost": "2201600",
            "executionCost": "infinite",
            "totalCost": "infinite"
        },
        "external": {
            "addBottomTokenId(uint256)": "26809",
            "addHeadTokenId(uint256)": "26765",
            "addTopTokenId(uint256)": "26808",
            "approve(address,uint256)": "infinite",
            "balanceOf(address)": "2697",
            "batchTransferFrom(address[],uint256[])": "infinite",
            "burn(uint256)": "infinite",
            "collectReserves(uint16)": "infinite",
            "explicitOwnershipOf(uint256)": "infinite",
            "explicitOwnershipsOf(uint256[])": "infinite",
            "flipSale()": "26681",
            "freeMintedCount(address)": "2731",
            "getApproved(uint256)": "7004",
            "getTraitTokenId(uint256)": "2766",
            "isApprovedForAll(address,address)": "infinite",
            "mint(uint8)": "infinite",
            "mintPaused()": "2344",
            "name()": "infinite",
            "operatorFilteringEnabled()": "2442",
            "owner()": "2420",
            "ownerOf(uint256)": "infinite",
            "renounceOwnership()": "infinite",
            "royaltyInfo(uint256,uint256)": "5171",
            "safeTransferFrom(address,address,uint256)": "infinite",
            "safeTransferFrom(address,address,uint256,bytes)": "infinite",
            "setApprovalForAll(address,bool)": "infinite",
            "setBaseURI(string)": "infinite",
            "setDefaultRoyalty(address,uint96)": "24960",
            "setOperatorFilteringEnabled(bool)": "26796",
            "setTraitTokenIds(address,uint256,uint16,uint16,uint16)": "infinite",
            "setTraitsContract(address)": "26868",
            "supportsInterface(bytes4)": "infinite",
            "symbol()": "infinite",
            "tokenURI(uint256)": "infinite",
            "tokensOfOwner(address)": "infinite",
            "tokensOfOwnerIn(address,uint256,uint256)": "infinite",
            "totalSupply()": "4464",
            "transferFrom(address,address,uint256)": "infinite",
            "transferOwnership(address)": "28443",
            "withdraw()": "infinite"
        },
        "internal": {
            "_baseURI()": "infinite",
            "_isPriorityOperator(address)": "36",
            "_operatorFilteringEnabled()": "infinite",
            "_startTokenId()": "infinite"
        }
    }
}