{
    "contractName": "Traits",
    "abi": [
        {
            "inputs": [
                {
                    "internalType": "string",
                    "name": "_baseURI",
                    "type": "string"
                }
            ],
            "stateMutability": "nonpayable",
            "type": "constructor"
        },
        {
            "inputs": [],
            "name": "BurnForZeroBalanceToken",
            "type": "error"
        },
        {
            "inputs": [],
            "name": "BurnNotEnabledForToken",
            "type": "error"
        },
        {
            "inputs": [],
            "name": "InvalidArraySize",
            "type": "error"
        },
        {
            "inputs": [],
            "name": "InvalidRarity",
            "type": "error"
        },
        {
            "inputs": [],
            "name": "InvalidTraitType",
            "type": "error"
        },
        {
            "inputs": [],
            "name": "TokenIdInUse",
            "type": "error"
        },
        {
            "anonymous": false,
            "inputs": [
                {
                    "indexed": true,
                    "internalType": "address",
                    "name": "account",
                    "type": "address"
                },
                {
                    "indexed": true,
                    "internalType": "address",
                    "name": "operator",
                    "type": "address"
                },
                {
                    "indexed": false,
                    "internalType": "bool",
                    "name": "approved",
                    "type": "bool"
                }
            ],
            "name": "ApprovalForAll",
            "type": "event"
        },
        {
            "anonymous": false,
            "inputs": [
                {
                    "indexed": true,
                    "internalType": "address",
                    "name": "previousOwner",
                    "type": "address"
                },
                {
                    "indexed": true,
                    "internalType": "address",
                    "name": "newOwner",
                    "type": "address"
                }
            ],
            "name": "OwnershipTransferred",
            "type": "event"
        },
        {
            "anonymous": false,
            "inputs": [
                {
                    "indexed": true,
                    "internalType": "string",
                    "name": "_baseURI",
                    "type": "string"
                }
            ],
            "name": "SetBaseURI",
            "type": "event"
        },
        {
            "anonymous": false,
            "inputs": [
                {
                    "indexed": false,
                    "internalType": "uint256",
                    "name": "_tokenId",
                    "type": "uint256"
                }
            ],
            "name": "TokenBurned",
            "type": "event"
        },
        {
            "anonymous": false,
            "inputs": [
                {
                    "indexed": true,
                    "internalType": "address",
                    "name": "operator",
                    "type": "address"
                },
                {
                    "indexed": true,
                    "internalType": "address",
                    "name": "from",
                    "type": "address"
                },
                {
                    "indexed": true,
                    "internalType": "address",
                    "name": "to",
                    "type": "address"
                },
                {
                    "indexed": false,
                    "internalType": "uint256[]",
                    "name": "ids",
                    "type": "uint256[]"
                },
                {
                    "indexed": false,
                    "internalType": "uint256[]",
                    "name": "values",
                    "type": "uint256[]"
                }
            ],
            "name": "TransferBatch",
            "type": "event"
        },
        {
            "anonymous": false,
            "inputs": [
                {
                    "indexed": true,
                    "internalType": "address",
                    "name": "operator",
                    "type": "address"
                },
                {
                    "indexed": true,
                    "internalType": "address",
                    "name": "from",
                    "type": "address"
                },
                {
                    "indexed": true,
                    "internalType": "address",
                    "name": "to",
                    "type": "address"
                },
                {
                    "indexed": false,
                    "internalType": "uint256",
                    "name": "id",
                    "type": "uint256"
                },
                {
                    "indexed": false,
                    "internalType": "uint256",
                    "name": "value",
                    "type": "uint256"
                }
            ],
            "name": "TransferSingle",
            "type": "event"
        },
        {
            "anonymous": false,
            "inputs": [
                {
                    "indexed": false,
                    "internalType": "uint256",
                    "name": "_tokenId",
                    "type": "uint256"
                }
            ],
            "name": "TransferredToken",
            "type": "event"
        },
        {
            "anonymous": false,
            "inputs": [
                {
                    "indexed": false,
                    "internalType": "string",
                    "name": "value",
                    "type": "string"
                },
                {
                    "indexed": true,
                    "internalType": "uint256",
                    "name": "id",
                    "type": "uint256"
                }
            ],
            "name": "URI",
            "type": "event"
        },
        {
            "inputs": [
                {
                    "internalType": "address",
                    "name": "account",
                    "type": "address"
                },
                {
                    "internalType": "uint256",
                    "name": "id",
                    "type": "uint256"
                }
            ],
            "name": "balanceOf",
            "outputs": [
                {
                    "internalType": "uint256",
                    "name": "",
                    "type": "uint256"
                }
            ],
            "stateMutability": "view",
            "type": "function"
        },
        {
            "inputs": [
                {
                    "internalType": "address[]",
                    "name": "accounts",
                    "type": "address[]"
                },
                {
                    "internalType": "uint256[]",
                    "name": "ids",
                    "type": "uint256[]"
                }
            ],
            "name": "balanceOfBatch",
            "outputs": [
                {
                    "internalType": "uint256[]",
                    "name": "",
                    "type": "uint256[]"
                }
            ],
            "stateMutability": "view",
            "type": "function"
        },
        {
            "inputs": [
                {
                    "internalType": "uint256",
                    "name": "tokenId",
                    "type": "uint256"
                },
                {
                    "internalType": "address",
                    "name": "burnTokenAddress",
                    "type": "address"
                }
            ],
            "name": "burnTraitForAddress",
            "outputs": [],
            "stateMutability": "nonpayable",
            "type": "function"
        },
        {
            "inputs": [
                {
                    "internalType": "uint256",
                    "name": "id",
                    "type": "uint256"
                },
                {
                    "internalType": "uint256",
                    "name": "rarity",
                    "type": "uint256"
                },
                {
                    "internalType": "uint256",
                    "name": "tokenType",
                    "type": "uint256"
                }
            ],
            "name": "initialiseTrait",
            "outputs": [],
            "stateMutability": "nonpayable",
            "type": "function"
        },
        {
            "inputs": [
                {
                    "internalType": "address",
                    "name": "account",
                    "type": "address"
                },
                {
                    "internalType": "address",
                    "name": "operator",
                    "type": "address"
                }
            ],
            "name": "isApprovedForAll",
            "outputs": [
                {
                    "internalType": "bool",
                    "name": "",
                    "type": "bool"
                }
            ],
            "stateMutability": "view",
            "type": "function"
        },
        {
            "inputs": [
                {
                    "internalType": "uint256[]",
                    "name": "ids",
                    "type": "uint256[]"
                },
                {
                    "internalType": "uint256[]",
                    "name": "amounts",
                    "type": "uint256[]"
                }
            ],
            "name": "mintBatch",
            "outputs": [],
            "stateMutability": "nonpayable",
            "type": "function"
        },
        {
            "inputs": [
                {
                    "internalType": "uint8",
                    "name": "quantity",
                    "type": "uint8"
                },
                {
                    "internalType": "uint256",
                    "name": "currentSupply",
                    "type": "uint256"
                },
                {
                    "internalType": "address",
                    "name": "_to",
                    "type": "address"
                }
            ],
            "name": "mintTraitSet",
            "outputs": [],
            "stateMutability": "nonpayable",
            "type": "function"
        },
        {
            "inputs": [],
            "name": "owner",
            "outputs": [
                {
                    "internalType": "address",
                    "name": "",
                    "type": "address"
                }
            ],
            "stateMutability": "view",
            "type": "function"
        },
        {
            "inputs": [],
            "name": "renounceOwnership",
            "outputs": [],
            "stateMutability": "nonpayable",
            "type": "function"
        },
        {
            "inputs": [
                {
                    "internalType": "address",
                    "name": "from",
                    "type": "address"
                },
                {
                    "internalType": "address",
                    "name": "to",
                    "type": "address"
                },
                {
                    "internalType": "uint256[]",
                    "name": "ids",
                    "type": "uint256[]"
                },
                {
                    "internalType": "uint256[]",
                    "name": "amounts",
                    "type": "uint256[]"
                },
                {
                    "internalType": "bytes",
                    "name": "data",
                    "type": "bytes"
                }
            ],
            "name": "safeBatchTransferFrom",
            "outputs": [],
            "stateMutability": "nonpayable",
            "type": "function"
        },
        {
            "inputs": [
                {
                    "internalType": "address",
                    "name": "from",
                    "type": "address"
                },
                {
                    "internalType": "address",
                    "name": "to",
                    "type": "address"
                },
                {
                    "internalType": "uint256",
                    "name": "id",
                    "type": "uint256"
                },
                {
                    "internalType": "uint256",
                    "name": "amount",
                    "type": "uint256"
                },
                {
                    "internalType": "bytes",
                    "name": "data",
                    "type": "bytes"
                }
            ],
            "name": "safeTransferFrom",
            "outputs": [],
            "stateMutability": "nonpayable",
            "type": "function"
        },
        {
            "inputs": [
                {
                    "internalType": "address",
                    "name": "operator",
                    "type": "address"
                },
                {
                    "internalType": "bool",
                    "name": "approved",
                    "type": "bool"
                }
            ],
            "name": "setApprovalForAll",
            "outputs": [],
            "stateMutability": "nonpayable",
            "type": "function"
        },
        {
            "inputs": [
                {
                    "internalType": "address",
                    "name": "dynamicTraitsContractAddress",
                    "type": "address"
                }
            ],
            "name": "setDynamicTraitsContractAddress",
            "outputs": [],
            "stateMutability": "nonpayable",
            "type": "function"
        },
        {
            "inputs": [
                {
                    "internalType": "uint256[]",
                    "name": "_rarityWeightings",
                    "type": "uint256[]"
                }
            ],
            "name": "setRarityWeightings",
            "outputs": [],
            "stateMutability": "nonpayable",
            "type": "function"
        },
        {
            "inputs": [
                {
                    "internalType": "bytes4",
                    "name": "interfaceId",
                    "type": "bytes4"
                }
            ],
            "name": "supportsInterface",
            "outputs": [
                {
                    "internalType": "bool",
                    "name": "",
                    "type": "bool"
                }
            ],
            "stateMutability": "view",
            "type": "function"
        },
        {
            "inputs": [
                {
                    "internalType": "address",
                    "name": "newOwner",
                    "type": "address"
                }
            ],
            "name": "transferOwnership",
            "outputs": [],
            "stateMutability": "nonpayable",
            "type": "function"
        },
        {
            "inputs": [
                {
                    "internalType": "string",
                    "name": "_baseURI",
                    "type": "string"
                }
            ],
            "name": "updateBaseUri",
            "outputs": [],
            "stateMutability": "nonpayable",
            "type": "function"
        },
        {
            "inputs": [
                {
                    "internalType": "uint256",
                    "name": "id",
                    "type": "uint256"
                }
            ],
            "name": "uri",
            "outputs": [
                {
                    "internalType": "string",
                    "name": "",
                    "type": "string"
                }
            ],
            "stateMutability": "view",
            "type": "function"
        },
        {
            "inputs": [
                {
                    "internalType": "uint256",
                    "name": "",
                    "type": "uint256"
                }
            ],
            "name": "validTokenIds",
            "outputs": [
                {
                    "internalType": "bool",
                    "name": "",
                    "type": "bool"
                }
            ],
            "stateMutability": "view",
            "type": "function"
        }
    ],
    "bytecode": "6101206040526101f4608090815260c860a052606460c052603260e0526019610100526200003290600690600562000136565b503480156200004057600080fd5b5060405162002f5b38038062002f5b8339810160408190526200006391620001b9565b806200006f81620000d2565b506200007b33620000e4565b60056200008982826200031d565b5060056040516200009b9190620003e9565b604051908190038120907f23c8c9488efebfd474e85a7956de6f39b17c7ab88502d42a623db2d8e382bbaa90600090a25062000467565b6002620000e082826200031d565b5050565b600380546001600160a01b038381166001600160a01b0319831681179093556040519116919082907f8be0079c531659141344cd1fd0a4f28419497f9722a3daafe3b4186f6b6457e090600090a35050565b8280548282559060005260206000209081019282156200017a579160200282015b828111156200017a578251829061ffff1690559160200191906001019062000157565b50620001889291506200018c565b5090565b5b808211156200018857600081556001016200018d565b634e487b7160e01b600052604160045260246000fd5b60006020808385031215620001cd57600080fd5b82516001600160401b0380821115620001e557600080fd5b818501915085601f830112620001fa57600080fd5b8151818111156200020f576200020f620001a3565b604051601f8201601f19908116603f011681019083821181831017156200023a576200023a620001a3565b8160405282815288868487010111156200025357600080fd5b600093505b8284101562000277578484018601518185018701529285019262000258565b600086848301015280965050505050505092915050565b600181811c90821680620002a357607f821691505b602082108103620002c457634e487b7160e01b600052602260045260246000fd5b50919050565b601f8211156200031857600081815260208120601f850160051c81016020861015620002f35750805b601f850160051c820191505b818110156200031457828155600101620002ff565b5050505b505050565b81516001600160401b03811115620003395762000339620001a3565b62000351816200034a84546200028e565b84620002ca565b602080601f831160018114620003895760008415620003705750858301515b600019600386901b1c1916600185901b17855562000314565b600085815260208120601f198616915b82811015620003ba5788860151825594840194600190910190840162000399565b5085821015620003d95787850151600019600388901b60f8161c191681555b5050505050600190811b01905550565b6000808354620003f9816200028e565b600182811680156200041457600181146200042a576200045b565b60ff19841687528215158302870194506200045b565b8760005260208060002060005b85811015620004525781548a82015290840190820162000437565b50505082870194505b50929695505050505050565b612ae480620004776000396000f3fe608060405234801561001057600080fd5b50600436106101205760003560e01c80635f599d00116100ad578063cce81cdc11610071578063cce81cdc1461027b578063d351cfdc1461028e578063e985e9c5146102a1578063f242432a146102dd578063f2fde38b146102f057600080fd5b80635f599d001461021f578063715018a6146102325780638da5cb5b1461023a5780639353821914610255578063a22cb4651461026857600080fd5b8063142a80c6116100f4578063142a80c6146101b15780632eb2c2d6146101c6578063334a6c07146101d957806339f7e37f146101ec5780634e1273f4146101ff57600080fd5b8062fdd58e1461012557806301ffc9a71461014b57806307b5f95b1461016e5780630e89341c14610191575b600080fd5b610138610133366004611edb565b610303565b6040519081526020015b60405180910390f35b61015e610159366004611f1b565b61039c565b6040519015158152602001610142565b61015e61017c366004611f3f565b600f6020526000908152604090205460ff1681565b6101a461019f366004611f3f565b6103ec565b6040516101429190611fa8565b6101c46101bf366004611fbb565b610524565b005b6101c46101d4366004612129565b61054e565b6101c46101e73660046121d2565b61059a565b6101c46101fa36600461220e565b6105d3565b61021261020d366004612256565b61062a565b604051610142919061235b565b6101c461022d36600461236e565b610753565b6101c4610a67565b6003546040516001600160a01b039091168152602001610142565b6101c461026336600461239a565b610a7b565b6101c46102763660046123c6565b610b17565b6101c4610289366004612402565b610b22565b6101c461029c366004612446565b610f54565b61015e6102af366004612492565b6001600160a01b03918216600090815260016020908152604080832093909416825291909152205460ff1690565b6101c46102eb3660046124bc565b610f88565b6101c46102fe366004611fbb565b610fcd565b60006001600160a01b0383166103735760405162461bcd60e51b815260206004820152602a60248201527f455243313135353a2061646472657373207a65726f206973206e6f742061207660448201526930b634b21037bbb732b960b11b60648201526084015b60405180910390fd5b506000818152602081815260408083206001600160a01b03861684529091529020545b92915050565b60006001600160e01b03198216636cdb3d1360e11b14806103cd57506001600160e01b031982166303a24d0760e21b145b8061039657506301ffc9a760e01b6001600160e01b0319831614610396565b6000818152600f602052604090205460609060ff1661044d5760405162461bcd60e51b815260206004820152601f60248201527f5552492072657175657374656420666f7220696e76616c696420746f6b656e00604482015260640161036a565b60006005805461045c90612520565b9050116104f3576005805461047090612520565b80601f016020809104026020016040519081016040528092919081815260200182805461049c90612520565b80156104e95780601f106104be576101008083540402835291602001916104e9565b820191906000526020600020905b8154815290600101906020018083116104cc57829003601f168201915b5050505050610396565b60056104fe83611046565b60405160200161050f9291906125cd565b60405160208183030381529060405292915050565b61052c6110d8565b600480546001600160a01b0319166001600160a01b0392909216919091179055565b6001600160a01b03851633148061056a575061056a85336102af565b6105865760405162461bcd60e51b815260040161036a906125f2565b6105938585858585611132565b5050505050565b80516005146105bc57604051635d29059d60e11b815260040160405180910390fd5b80516105cf906006906020840190611e5f565b5050565b6105db6110d8565b60056105e7828261268b565b5060056040516105f7919061274a565b604051908190038120907f23c8c9488efebfd474e85a7956de6f39b17c7ab88502d42a623db2d8e382bbaa90600090a250565b6060815183511461068f5760405162461bcd60e51b815260206004820152602960248201527f455243313135353a206163636f756e747320616e6420696473206c656e677468604482015268040dad2e6dac2e8c6d60bb1b606482015260840161036a565b600083516001600160401b038111156106aa576106aa611fd6565b6040519080825280602002602001820160405280156106d3578160200160208202803683370190505b50905060005b845181101561074b5761071e8582815181106106f7576106f7612756565b602002602001015185838151811061071157610711612756565b6020026020010151610303565b82828151811061073057610730612756565b602090810291909101015261074481612782565b90506106d9565b509392505050565b61075b6110d8565b6004821180610768575060005b156107865760405163013ebdc960e51b815260040160405180910390fd5b6002811180610793575060005b156107b157604051639d473a1360e01b815260040160405180910390fd5b6000838152600f602052604090205460ff1615156001036107e55760405163058e732960e51b815260040160405180910390fd5b6040805160608101825284815260208101849052600091810191909152816108a55760088054600181018255600091825282517ff3f7a9fe364faab93b216da50a3214154f22a0a2b415b23a84c8169e8b636ee360039092029182015560208301517ff3f7a9fe364faab93b216da50a3214154f22a0a2b415b23a84c8169e8b636ee482015560408301517ff3f7a9fe364faab93b216da50a3214154f22a0a2b415b23a84c8169e8b636ee5909101556108a09082906112ce565b6109ea565b6001820361094857600980546001808201835560009290925282517f6e1540171b6c0c960b71a7020d9f60077f6af931a8bbf590da0223dacf75c7af60039092029182015560208301517f6e1540171b6c0c960b71a7020d9f60077f6af931a8bbf590da0223dacf75c7b082015560408301517f6e1540171b6c0c960b71a7020d9f60077f6af931a8bbf590da0223dacf75c7b1909101556108a09082906112ce565b600282036109ea57600a805460018101825560009190915281517fc65a7bb8d6351c1cf70c95a316cc6a92839c986682d98bc35f958f4883f9d2a860039092029182015560208201517fc65a7bb8d6351c1cf70c95a316cc6a92839c986682d98bc35f958f4883f9d2a982015560408201517fc65a7bb8d6351c1cf70c95a316cc6a92839c986682d98bc35f958f4883f9d2aa909101556109ea8160026112ce565b6001600783815481106109ff576109ff612756565b90600052602060002090602091828204019190068282829054906101000a900460ff16610a2c919061279b565b825460ff9182166101009390930a9283029190920219909116179055505050600091825250600f60205260409020805460ff19166001179055565b610a6f6110d8565b610a7960006113b2565b565b610a853383610303565b600003610aa55760405163e0cbd3a160e01b815260040160405180910390fd5b6000828152600b602052604090205460ff16610ad457604051631f1e253f60e31b815260040160405180910390fd5b610ae081836001611404565b6040518281527f0c526103b8f47af5516191d0c89a598755bd00faa211a3cb52e4c2cc782f7fe29060200160405180910390a15050565b6105cf338383611585565b6004546001600160a01b03163314610b975760405162461bcd60e51b815260206004820152603260248201527f46756e6374696f6e206d7573742062652063616c6c65642066726f6d20746865604482015271081bdc9a59da5b985b0818dbdb9d1c9858dd60721b606482015260840161036a565b60005b8360ff16811015610f4e57604080516003808252608082019092526000916020820160608036833750506040805160038082526080820190925292935060009291506020820160608036833701905050600c5460408051600060208201819052918101899052426060820152929350916080016040516020818303038152906040528051906020012060001c610c3091906127b4565b90506000610c3f600083611665565b90508084600081518110610c5557610c55612756565b602002602001018181525050600183600081518110610c7657610c76612756565b6020026020010181815250506000600d5460018942604051602001610cae939291909283526020830191909152604082015260600190565b6040516020818303038152906040528051906020012060001c610cd191906127b4565b90506000610ce0600183611665565b90508086600181518110610cf657610cf6612756565b602002602001018181525050600185600181518110610d1757610d17612756565b6020026020010181815250506000600e5460028b42604051602001610d4f939291909283526020830191909152604082015260600190565b6040516020818303038152906040528051906020012060001c610d7291906127b4565b90506000610d81600283611665565b90508088600281518110610d9757610d97612756565b602002602001018181525050600187600281518110610db857610db8612756565b602002602001018181525050610ddf8a898960405180602001604052806000815250611877565b600160088681548110610df457610df4612756565b90600052602060002090600302016002016000828254610e1491906127d6565b92505081905550600160098481548110610e3057610e30612756565b90600052602060002090600302016002016000828254610e5091906127d6565b925050819055506001600a8281548110610e6c57610e6c612756565b90600052602060002090600302016002016000828254610e8c91906127d6565b9091555060009050610ea18a60ff8f166127e9565b610eab908d6127e9565b6004805460405163571489a960e01b815232928101929092526024820183905261ffff808a1660448401528088166064840152851660848301529192506001600160a01b0390911690819063571489a99060a401600060405180830381600087803b158015610f1957600080fd5b505af1158015610f2d573d6000803e3d6000fd5b50505050505050505050505050508080610f4690612782565b915050610b9a565b50505050565b610f5c6110d8565b6105cf610f716003546001600160a01b031690565b838360405180602001604052806000815250611877565b6001600160a01b038516331480610fa45750610fa485336102af565b610fc05760405162461bcd60e51b815260040161036a906125f2565b61059385858585856119fc565b610fd56110d8565b6001600160a01b03811661103a5760405162461bcd60e51b815260206004820152602660248201527f4f776e61626c653a206e6577206f776e657220697320746865207a65726f206160448201526564647265737360d01b606482015260840161036a565b611043816113b2565b50565b6060600061105383611b26565b60010190506000816001600160401b0381111561107257611072611fd6565b6040519080825280601f01601f19166020018201604052801561109c576020820181803683370190505b5090508181016020015b600019016f181899199a1a9b1b9c1cb0b131b232b360811b600a86061a8153600a85049450846110a657509392505050565b6003546001600160a01b03163314610a795760405162461bcd60e51b815260206004820181905260248201527f4f776e61626c653a2063616c6c6572206973206e6f7420746865206f776e6572604482015260640161036a565b81518351146111535760405162461bcd60e51b815260040161036a906127fc565b6001600160a01b0384166111795760405162461bcd60e51b815260040161036a90612844565b3360005b845181101561126057600085828151811061119a5761119a612756565b6020026020010151905060008583815181106111b8576111b8612756565b602090810291909101810151600084815280835260408082206001600160a01b038e1683529093529190912054909150818110156112085760405162461bcd60e51b815260040161036a90612889565b6000838152602081815260408083206001600160a01b038e8116855292528083208585039055908b168252812080548492906112459084906127d6565b925050819055505050508061125990612782565b905061117d565b50846001600160a01b0316866001600160a01b0316826001600160a01b03167f4a39dc06d4c0dbc64b70af90fd698a233a518aa5d07e595d983b8c0526c8f7fb87876040516112b09291906128d3565b60405180910390a46112c6818787878787611bfe565b505050505050565b60028111156112f057604051639d473a1360e01b815260040160405180910390fd5b8061133357600682602001518154811061130c5761130c612756565b9060005260206000200154600c600082825461132891906127d6565b909155506105cf9050565b6001810361136e57600682602001518154811061135257611352612756565b9060005260206000200154600d600082825461132891906127d6565b600281036105cf57600682602001518154811061138d5761138d612756565b9060005260206000200154600e60008282546113a991906127d6565b90915550505050565b600380546001600160a01b038381166001600160a01b0319831681179093556040519116919082907f8be0079c531659141344cd1fd0a4f28419497f9722a3daafe3b4186f6b6457e090600090a35050565b6001600160a01b0383166114665760405162461bcd60e51b815260206004820152602360248201527f455243313135353a206275726e2066726f6d20746865207a65726f206164647260448201526265737360e81b606482015260840161036a565b33600061147284611d59565b9050600061147f84611d59565b60408051602080820183526000918290528882528181528282206001600160a01b038b16835290522054909150848110156115085760405162461bcd60e51b8152602060048201526024808201527f455243313135353a206275726e20616d6f756e7420657863656564732062616c604482015263616e636560e01b606482015260840161036a565b6000868152602081815260408083206001600160a01b038b81168086529184528285208a8703905582518b81529384018a90529092908816917fc3d58168c5ae7397731d063d5bbf3d657854427343f4c083240f7aacaa2d0f62910160405180910390a46040805160208101909152600090525b50505050505050565b816001600160a01b0316836001600160a01b0316036115f85760405162461bcd60e51b815260206004820152602960248201527f455243313135353a2073657474696e6720617070726f76616c20737461747573604482015268103337b91039b2b63360b91b606482015260840161036a565b6001600160a01b03838116600081815260016020908152604080832094871680845294825291829020805460ff191686151590811790915591519182527f17307eab39ab6107e8899845ad3d59bd9653f200f220920489ca2b5937696c31910160405180910390a3505050565b600080836117265760005b60085481101561172457600082905060066008838154811061169457611694612756565b906000526020600020906003020160010154815481106116b6576116b6612756565b9060005260206000200154836116cc91906127d6565b92508085101580156116dd57508285105b1561171157600882815481106116f5576116f5612756565b9060005260206000209060030201600001549350505050610396565b508061171c81612782565b915050611670565b505b600184036117cb5760005b6009548110156117c957600082905060066009838154811061175557611755612756565b9060005260206000209060030201600101548154811061177757611777612756565b90600052602060002001548361178d91906127d6565b925080851015801561179e57508285105b156117b657600982815481106116f5576116f5612756565b50806117c181612782565b915050611731565b505b600284036118705760005b600a5481101561186e5760008290506006600a83815481106117fa576117fa612756565b9060005260206000209060030201600101548154811061181c5761181c612756565b90600052602060002001548361183291906127d6565b925080851015801561184357508285105b1561185b57600a82815481106116f5576116f5612756565b508061186681612782565b9150506117d6565b505b5092915050565b6001600160a01b0384166118d75760405162461bcd60e51b815260206004820152602160248201527f455243313135353a206d696e7420746f20746865207a65726f206164647265736044820152607360f81b606482015260840161036a565b81518351146118f85760405162461bcd60e51b815260040161036a906127fc565b3360005b84518110156119945783818151811061191757611917612756565b602002602001015160008087848151811061193457611934612756565b602002602001015181526020019081526020016000206000886001600160a01b03166001600160a01b03168152602001908152602001600020600082825461197c91906127d6565b9091555081905061198c81612782565b9150506118fc565b50846001600160a01b031660006001600160a01b0316826001600160a01b03167f4a39dc06d4c0dbc64b70af90fd698a233a518aa5d07e595d983b8c0526c8f7fb87876040516119e59291906128d3565b60405180910390a461059381600087878787611bfe565b6001600160a01b038416611a225760405162461bcd60e51b815260040161036a90612844565b336000611a2e85611d59565b90506000611a3b85611d59565b90506000868152602081815260408083206001600160a01b038c16845290915290205485811015611a7e5760405162461bcd60e51b815260040161036a90612889565b6000878152602081815260408083206001600160a01b038d8116855292528083208985039055908a16825281208054889290611abb9084906127d6565b909155505060408051888152602081018890526001600160a01b03808b16928c821692918816917fc3d58168c5ae7397731d063d5bbf3d657854427343f4c083240f7aacaa2d0f62910160405180910390a4611b1b848a8a8a8a8a611da4565b505050505050505050565b60008072184f03e93ff9f4daa797ed6e38ed64bf6a1f0160401b8310611b655772184f03e93ff9f4daa797ed6e38ed64bf6a1f0160401b830492506040015b6d04ee2d6d415b85acef81000000008310611b91576d04ee2d6d415b85acef8100000000830492506020015b662386f26fc100008310611baf57662386f26fc10000830492506010015b6305f5e1008310611bc7576305f5e100830492506008015b6127108310611bdb57612710830492506004015b60648310611bed576064830492506002015b600a83106103965760010192915050565b6001600160a01b0384163b156112c65760405163bc197c8160e01b81526001600160a01b0385169063bc197c8190611c429089908990889088908890600401612901565b6020604051808303816000875af1925050508015611c7d575060408051601f3d908101601f19168201909252611c7a9181019061295f565b60015b611d2957611c8961297c565b806308c379a003611cc25750611c9d612998565b80611ca85750611cc4565b8060405162461bcd60e51b815260040161036a9190611fa8565b505b60405162461bcd60e51b815260206004820152603460248201527f455243313135353a207472616e7366657220746f206e6f6e2d455243313135356044820152732932b1b2b4bb32b91034b6b83632b6b2b73a32b960611b606482015260840161036a565b6001600160e01b0319811663bc197c8160e01b1461157c5760405162461bcd60e51b815260040161036a90612a21565b60408051600180825281830190925260609160009190602080830190803683370190505090508281600081518110611d9357611d93612756565b602090810291909101015292915050565b6001600160a01b0384163b156112c65760405163f23a6e6160e01b81526001600160a01b0385169063f23a6e6190611de89089908990889088908890600401612a69565b6020604051808303816000875af1925050508015611e23575060408051601f3d908101601f19168201909252611e209181019061295f565b60015b611e2f57611c8961297c565b6001600160e01b0319811663f23a6e6160e01b1461157c5760405162461bcd60e51b815260040161036a90612a21565b828054828255906000526020600020908101928215611e9a579160200282015b82811115611e9a578251825591602001919060010190611e7f565b50611ea6929150611eaa565b5090565b5b80821115611ea65760008155600101611eab565b80356001600160a01b0381168114611ed657600080fd5b919050565b60008060408385031215611eee57600080fd5b611ef783611ebf565b946020939093013593505050565b6001600160e01b03198116811461104357600080fd5b600060208284031215611f2d57600080fd5b8135611f3881611f05565b9392505050565b600060208284031215611f5157600080fd5b5035919050565b60005b83811015611f73578181015183820152602001611f5b565b50506000910152565b60008151808452611f94816020860160208601611f58565b601f01601f19169290920160200192915050565b602081526000611f386020830184611f7c565b600060208284031215611fcd57600080fd5b611f3882611ebf565b634e487b7160e01b600052604160045260246000fd5b601f8201601f191681016001600160401b038111828210171561201157612011611fd6565b6040525050565b60006001600160401b0382111561203157612031611fd6565b5060051b60200190565b600082601f83011261204c57600080fd5b8135602061205982612018565b6040516120668282611fec565b83815260059390931b850182019282810191508684111561208657600080fd5b8286015b848110156120a1578035835291830191830161208a565b509695505050505050565b60006001600160401b038311156120c5576120c5611fd6565b6040516120dc601f8501601f191660200182611fec565b8091508381528484840111156120f157600080fd5b83836020830137600060208583010152509392505050565b600082601f83011261211a57600080fd5b611f38838335602085016120ac565b600080600080600060a0868803121561214157600080fd5b61214a86611ebf565b945061215860208701611ebf565b935060408601356001600160401b038082111561217457600080fd5b61218089838a0161203b565b9450606088013591508082111561219657600080fd5b6121a289838a0161203b565b935060808801359150808211156121b857600080fd5b506121c588828901612109565b9150509295509295909350565b6000602082840312156121e457600080fd5b81356001600160401b038111156121fa57600080fd5b6122068482850161203b565b949350505050565b60006020828403121561222057600080fd5b81356001600160401b0381111561223657600080fd5b8201601f8101841361224757600080fd5b612206848235602084016120ac565b6000806040838503121561226957600080fd5b82356001600160401b038082111561228057600080fd5b818501915085601f83011261229457600080fd5b813560206122a182612018565b6040516122ae8282611fec565b83815260059390931b85018201928281019150898411156122ce57600080fd5b948201945b838610156122f3576122e486611ebf565b825294820194908201906122d3565b9650508601359250508082111561230957600080fd5b506123168582860161203b565b9150509250929050565b600081518084526020808501945080840160005b8381101561235057815187529582019590820190600101612334565b509495945050505050565b602081526000611f386020830184612320565b60008060006060848603121561238357600080fd5b505081359360208301359350604090920135919050565b600080604083850312156123ad57600080fd5b823591506123bd60208401611ebf565b90509250929050565b600080604083850312156123d957600080fd5b6123e283611ebf565b9150602083013580151581146123f757600080fd5b809150509250929050565b60008060006060848603121561241757600080fd5b833560ff8116811461242857600080fd5b92506020840135915061243d60408501611ebf565b90509250925092565b6000806040838503121561245957600080fd5b82356001600160401b038082111561247057600080fd5b61247c8683870161203b565b9350602085013591508082111561230957600080fd5b600080604083850312156124a557600080fd5b6124ae83611ebf565b91506123bd60208401611ebf565b600080600080600060a086880312156124d457600080fd5b6124dd86611ebf565b94506124eb60208701611ebf565b9350604086013592506060860135915060808601356001600160401b0381111561251457600080fd5b6121c588828901612109565b600181811c9082168061253457607f821691505b60208210810361255457634e487b7160e01b600052602260045260246000fd5b50919050565b6000815461256781612520565b6001828116801561257f5760018114612594576125c3565b60ff19841687528215158302870194506125c3565b8560005260208060002060005b858110156125ba5781548a8201529084019082016125a1565b50505082870194505b5050505092915050565b60006125d9828561255a565b83516125e9818360208801611f58565b01949350505050565b6020808252602e908201527f455243313135353a2063616c6c6572206973206e6f7420746f6b656e206f776e60408201526d195c881bdc88185c1c1c9bdd995960921b606082015260800190565b601f82111561268657600081815260208120601f850160051c810160208610156126675750805b601f850160051c820191505b818110156112c657828155600101612673565b505050565b81516001600160401b038111156126a4576126a4611fd6565b6126b8816126b28454612520565b84612640565b602080601f8311600181146126ed57600084156126d55750858301515b600019600386901b1c1916600185901b1785556112c6565b600085815260208120601f198616915b8281101561271c578886015182559484019460019091019084016126fd565b508582101561273a5787850151600019600388901b60f8161c191681555b5050505050600190811b01905550565b6000611f38828461255a565b634e487b7160e01b600052603260045260246000fd5b634e487b7160e01b600052601160045260246000fd5b6000600182016127945761279461276c565b5060010190565b60ff81811683821601908111156103965761039661276c565b6000826127d157634e487b7160e01b600052601260045260246000fd5b500690565b808201808211156103965761039661276c565b818103818111156103965761039661276c565b60208082526028908201527f455243313135353a2069647320616e6420616d6f756e7473206c656e677468206040820152670dad2e6dac2e8c6d60c31b606082015260800190565b60208082526025908201527f455243313135353a207472616e7366657220746f20746865207a65726f206164604082015264647265737360d81b606082015260800190565b6020808252602a908201527f455243313135353a20696e73756666696369656e742062616c616e636520666f60408201526939103a3930b739b332b960b11b606082015260800190565b6040815260006128e66040830185612320565b82810360208401526128f88185612320565b95945050505050565b6001600160a01b0386811682528516602082015260a06040820181905260009061292d90830186612320565b828103606084015261293f8186612320565b905082810360808401526129538185611f7c565b98975050505050505050565b60006020828403121561297157600080fd5b8151611f3881611f05565b600060033d11156129955760046000803e5060005160e01c5b90565b600060443d10156129a65790565b6040516003193d81016004833e81513d6001600160401b0381602484011181841117156129d557505050505090565b82850191508151818111156129ed5750505050505090565b843d8701016020828501011115612a075750505050505090565b612a1660208286010187611fec565b509095945050505050565b60208082526028908201527f455243313135353a204552433131353552656365697665722072656a656374656040820152676420746f6b656e7360c01b606082015260800190565b6001600160a01b03868116825285166020820152604081018490526060810183905260a060808201819052600090612aa390830184611f7c565b97965050505050505056fea264697066735822122092f727275e07538c1d0d7dffa23eece03980cac939185e29b3d5f0773d08e5c364736f6c63430008130033",
    "sourcePath": "/Users/lachlanwardropper/Desktop/dev/wardsynft/nft-dynamic-traits/contracts/Traits.sol",
    "compiler": {
        "name": "solc",
        "version": "0.8.19+commit.7dd6d404"
    },
    "functionHashes": {
        "balanceOf(address,uint256)": "00fdd58e",
        "balanceOfBatch(address[],uint256[])": "4e1273f4",
        "burnTraitForAddress(uint256,address)": "93538219",
        "initialiseTrait(uint256,uint256,uint256)": "5f599d00",
        "isApprovedForAll(address,address)": "e985e9c5",
        "mintBatch(uint256[],uint256[])": "d351cfdc",
        "mintTraitSet(uint8,uint256,address)": "cce81cdc",
        "owner()": "8da5cb5b",
        "renounceOwnership()": "715018a6",
        "safeBatchTransferFrom(address,address,uint256[],uint256[],bytes)": "2eb2c2d6",
        "safeTransferFrom(address,address,uint256,uint256,bytes)": "f242432a",
        "setApprovalForAll(address,bool)": "a22cb465",
        "setDynamicTraitsContractAddress(address)": "142a80c6",
        "setRarityWeightings(uint256[])": "334a6c07",
        "supportsInterface(bytes4)": "01ffc9a7",
        "transferOwnership(address)": "f2fde38b",
        "updateBaseUri(string)": "39f7e37f",
        "uri(uint256)": "0e89341c",
        "validTokenIds(uint256)": "07b5f95b"
    },
    "gasEstimates": {
        "creation": {
            "codeDepositCost": "2196000",
            "executionCost": "infinite",
            "totalCost": "infinite"
        },
        "external": {
            "balanceOf(address,uint256)": "2700",
            "balanceOfBatch(address[],uint256[])": "infinite",
            "burnTraitForAddress(uint256,address)": "infinite",
            "initialiseTrait(uint256,uint256,uint256)": "infinite",
            "isApprovedForAll(address,address)": "infinite",
            "mintBatch(uint256[],uint256[])": "infinite",
            "mintTraitSet(uint8,uint256,address)": "infinite",
            "owner()": "2368",
            "renounceOwnership()": "infinite",
            "safeBatchTransferFrom(address,address,uint256[],uint256[],bytes)": "infinite",
            "safeTransferFrom(address,address,uint256,uint256,bytes)": "infinite",
            "setApprovalForAll(address,bool)": "26794",
            "setDynamicTraitsContractAddress(address)": "26758",
            "setRarityWeightings(uint256[])": "infinite",
            "supportsInterface(bytes4)": "578",
            "transferOwnership(address)": "28446",
            "updateBaseUri(string)": "infinite",
            "uri(uint256)": "infinite",
            "validTokenIds(uint256)": "2518"
        },
        "internal": {
            "appendWeightingSum(struct Traits.Trait memory,uint256)": "infinite",
            "getIdForNumber(uint256,uint256)": "infinite"
        }
    }
}